:100000000C9465080C94AC080C94AC080C94AC08E7
:100010000C94AC080C94AC080C94AC080C94AC0890
:100020000C94AC080C94AC080C948B310C945E329C
:100030000C9488230C94AC080C94AC080C94AC0879
:100040000C94AC080C94AC080C94AC080C94AC0860
:100050000C94AC080C94F3230C94AC080C94AC08EE
:100060000C94AC080C94AC080C94AC080C94AC0840
:100070000C94AC080C94AC080C94AC080C94AC0830
:100080000C94AC080C94AC080C94AC080C94AC0820
:100090000C94AC080C94AC080C94AC080C94AC0810
:1000A0000C94AC080C94AC080C94AC081E001F0017
:1000B000200021002200230000002400250026004B
:1000C00027002D002E00290014001A00080015003A
:1000D000170000001C0018000C00120013002F0075
:1000E0002B0004001600070009000A0000000B00A6
:1000F0000D000E000F0033003400E1001D001B0056
:100100000600190005002A00110010003600370013
:100110003800E500E000E300E200015135002C006A
:1001200028002C0031005000510052004F003A00CE
:100130003B003C003D003E003F000000400041000D
:1001400042004300440045001050C25CC35CC45CE4
:10015000C55CC65C000001004A004B00010046007F
:10016000300001000100CB5CCC5CC75CC85C0000C7
:1001700001004D004E00010001000100125001007D
:1001800001000100C95CCA5C4C00010001000100D3
:100190000100010001000100010001000100010057
:1001A000010049000100A800AC00AA00A900AB00B2
:1001B000000000000000000000000000000000003F
:1001C00000000000000000000000105000000000CF
:1001D000000000000000000000000000000000001F
:1001E000000000000000000000000000000000000F
:1001F00000000000000000000000000000000000FF
:1002000000000000000000000000000000000000EE
:1002100000000000000000000000000000000000DE
:1002200000000000000000000000000000000000CE
:10023000005C44454255473A2064697361626C65CD
:10024000642E0A0044454255473A20656E61626C4F
:1002500065642E0A000A002530313662003A20001B
:1002600025303258000A722F632030313233343552
:10027000363738394142434445460A007267626C5A
:10028000696768742073657420687376205B4E4FCD
:10029000454550524F4D5D3A2025752C25752C252E
:1002A000750A007267626C696768742073657420F0
:1002B000687376205B454550524F4D5D3A20257559
:1002C0002C25752C25750A007267626C6967687445
:1002D0002064697361626C65205B454550524F4DE7
:1002E0005D3A207267626C696768745F636F6E66FF
:1002F00069672E656E61626C65203D2025750A0078
:100300007267626C6967687420656E61626C6520F3
:100310005B454550524F4D5D3A207267626C69678C
:1003200068745F636F6E6669672E656E61626C6587
:10033000203D2025750A007267626C696768742029
:10034000746F67676C65205B454550524F4D5D3A51
:10035000207267626C696768745F636F6E66696755
:100360002E656E61626C65203D2025750A007267FE
:10037000626C69676874206D6F6465205B4E4F45E1
:100380004550524F4D5D3A2025750A007267626CE8
:1003900069676874206D6F6465205B454550524FF6
:1003A0004D5D3A2025750A007267626C6967687452
:1003B0005F696E6974207267626C696768745F63F5
:1003C0006F6E6669672E6D6F6465203D20302E204C
:1003D00057726974652064656661756C7420766116
:1003E0006C75657320746F20454550524F4D2E0A31
:1003F000007267626C696768745F696E6974206512
:1004000065636F6E666967206973206E6F7420651F
:100410006E61626C65642E0A007267626C6967685F
:10042000745F696E6974207374617274210A00725A
:1004300067626C696768745F696E69742063616C78
:100440006C65642E0A007267626C696768745F632A
:100450006F6E6669672E7370656564203D20256444
:100460000A007267626C696768745F636F6E6669C1
:10047000672E76616C203D2025640A007267626CED
:10048000696768745F636F6E6669672E7361742055
:100490003D2025640A007267626C696768745F6357
:1004A0006F6E6669672E687565203D2025640A00B9
:1004B0007267686C696768745F636F6E6669672EE0
:1004C0006D6F6465203D2025640A007267626C6967
:1004D0006768745F636F6E6669672E656E61626CD4
:1004E00065203D2025640A007267626C6967687444
:1004F0005F636F6E66696720454550524F4D3A0AFB
:1005000000000101010101010101010202020202D8
:1005100002020202030303030303030304040404AB
:100520000404040505050505060606060607070773
:10053000070708080808090909090A0A0A0B0B0B2A
:100540000C0C0C0D0D0D0E0E0E0F0F0F10101111C7
:10055000111212131314141515161617171818194B
:10056000191A1A1B1B1C1D1D1E1E1F2020212222B2
:10057000232424252626272829292A2B2C2D2D2EF5
:100580002F30313232333435363738393A3B3C3D0F
:100590003E3F404142434445464748494A4C4D4E00
:1005A0004F50515354555658595A5B5D5E5F6162C6
:1005B00064656668696B6C6D6F7072737577787A55
:1005C0007B7D7E8082838587888A8C8E8F919395B0
:1005D00096989A9C9EA0A2A3A5A7A9ABADAFB1B3D4
:1005E000B5B7BABCBEC0C2C4C6C9CBCDCFD1D4D6B4
:1005F000D8DBDDDFE2E4E7E9EBEEF0F3F5F8FAFD56
:10060000FF556E69636F646520696E707574206D47
:100610006F64652073657420746F3A2025750A0035
:10062000556E69636F646520696E707574206D6FB7
:10063000646520696E697420746F3A2025750A001C
:100640000A002530325820006B6579626F61726450
:100650005F7265706F72743A20000A00253032585C
:10066000006B6579626F6172645F7365745F6C655E
:10067000643A2000290A002575002F002575005DC9
:100680002800256400200025640020002564002047
:10069000002564007C0025303258006D6F7573654D
:1006A0006B6579205B62746E7C7820792076206897
:1006B0005D287265702F61636C293A205B006D6B59
:1006C0005F776865656C5F74696D655F746F5F6D9A
:1006D0006178203D2025640A006D6B5F7768656551
:1006E0006C5F6D61785F7370656564203D20256483
:1006F0000A006D6B5F74696D655F746F5F6D617823
:10070000203D2025640A006D6B5F6D61785F73701A
:10071000656564203D2025640A006D6B5F696E7419
:10072000657276616C203D2025640A006D6B5F6404
:10073000656C6179203D2025640A006D6B5F7768E8
:1007400065656C5F74696D655F746F5F6D6178205E
:100750003D2025640A006D6B5F776865656C5F6D91
:1007600061785F7370656564203D2025640A006DC3
:100770006B5F74696D655F746F5F6D6178203D209C
:1007800025640A006D6B5F6D61785F7370656564E9
:10079000203D2025640A006D6B5F696E746572767A
:1007A000616C203D2025640A006D6B5F64656C619F
:1007B00079203D2025640A000A00257500363A207C
:1007C000776865656C5F74696D655F746F5F6D6197
:1007D000783A20000A00257500353A20776865656B
:1007E0006C5F6D61785F73706565643A20000A0024
:1007F000257500343A2074696D655F746F5F6D61B3
:10080000783A20000A00257500333A206D61785F40
:1008100073706565643A20000A00257500323A203D
:10082000696E74657276616C286D73293A20000ACE
:1008300000257500313A2064656C6179282A3130D1
:100840006D73293A20000A092D2056616C75657375
:10085000202D0A004D3E004D25643E20003F0073D0
:1008600065742064656661756C740A00433E2000FF
:1008700077686572652064656C74613A206375728F
:10088000736F723D25642C20776865656C3D256427
:100890000A53656520687474703A2F2F656E2E7741
:1008A000696B6970656469612E6F72672F77696B18
:1008B000692F4D6F7573655F6B6579730A000A095F
:1008C0002D204D6F7573656B6579202D0A45534357
:1008D0002F713A09717569740A313A0964656C615E
:1008E00079282A31306D73290A323A09696E7465A4
:1008F0007276616C286D73290A333A096D61785FED
:1009000073706565640A343A0974696D655F746F64
:100910005F6D61780A353A09776865656C5F6D616E
:10092000785F73706565640A363A09776865656C47
:100930005F74696D655F746F5F6D61780A0A703A04
:10094000097072696E742076616C7565730A643A19
:10095000097365742064656661756C74730A7570DB
:100960003A092B310A646F776E3A092D310A7067A4
:1009700075703A092B31300A7067646F776E3A09E7
:100980002D31300A0A7370656564203D2064656C02
:100990007461202A206D61785F7370656564202A18
:1009A0002028726570656174202F2074696D655F01
:1009B000746F5F6D6178290A003F004D3E2000434F
:1009C0003E20004C25640A0074696D65725F726593
:1009D0006164333228293A202530346C580A006B80
:1009E0006579626F6172645F69646C653A2025584D
:1009F0000A006B6579626F6172645F70726F746F09
:100A0000636F6C3A2025580A00686F73745F6B65DA
:100A100079626F6172645F6C65647328293A20257E
:100A2000580A000A092D20537461747573202D0A29
:100A3000004743433A2031302E312E302041565268
:100A40002D4C4942433A20322E302E30204156520E
:100A50005F415243483A20617672350A004F505444
:100A6000494F4E533A204C554641204D4F55534522
:100A70004B45592045585452414B455920434F4E00
:100A8000534F4C4520434F4D4D414E442034303957
:100A9000360A004255494C443A2022302E392E3431
:100AA0002D342D673330366430322D646972747999
:100AB00022202830313A32373A3039204A756E20B8
:100AC00020372032303230290A005649443A20304B
:100AD00078464545442850726F6665742920504910
:100AE000443A203078363036322841747265757356
:100AF000363229205645523A203078303030310A8B
:100B000000444553433A20712E6D2E6B2E206B65A9
:100B100079626F617264206669726D7761726520B7
:100B2000666F722041747265757336320A000A0965
:100B30002D2056657273696F6E202D0A000A092DEB
:100B400020436F6E736F6C65202D0A4553432F71E0
:100B50003A09717569740A6D3A096D6F7573656B41
:100B600065790A000A092D204D61676963202D0A05
:100B7000443A094465627567204D65737361676522
:100B800020546F67676C650A583A094D6174726941
:100B900078204465627567204D6F646520546F67E7
:100BA000676C65202D2053686F77206B65797072B4
:100BB000657373657320696E206D61747269782046
:100BC000677269640A4B3A094B6579626F617264B6
:100BD00020446562756720546F67676C65202D201F
:100BE00053686F77206B65797072657373207265D7
:100BF000706F72740A4D3A094465627567204D6FD3
:100C000075736520546F67676C650A563A095665B7
:100C10007273696F6E0A533A095374617475730A7B
:100C2000433A09416374697661746520436F6E735A
:100C30006F6C65204D6F64650A46312D4631303A40
:100C40000953776974636820746F204C6179657209
:100C500020302D392028463130203D204C30290AC3
:100C6000302D393A0953776974636820746F204CCA
:100C70006179657220302D390A47524156453A094B
:100C800053776974636820746F204C6179657220B2
:100C9000302028616C7465726E617465290A423A6D
:100CA000094A756D7020746F20426F6F746C6F61AC
:100CB0006465720A4553433A094A756D7020746F32
:100CC00020426F6F746C6F616465722028616C7470
:100CD00065726E617465290A453A095072696E74CD
:100CE00020454550524F4D2053657474696E6773AB
:100CF0000A4253504143453A09436C6561722045AD
:100D00004550524F4D0A000A002575002E6E6B7239
:100D10006F3A20000A002575002E737761705F62BC
:100D200061636B736C6173685F6261636B73706145
:100D300063653A20000A002575002E737761705FA5
:100D400067726176655F6573633A20000A002575F6
:100D5000002E6E6F5F6775693A20000A00257500E6
:100D60002E737761705F72616C745F726775693A38
:100D700020000A002575002E737761705F6C616C2E
:100D8000745F6C6775693A20000A002575002E7340
:100D90007761705F7263746C5F726775693A200087
:100DA0000A002575002E737761705F6C63746C5F49
:100DB0006C6775693A20000A002575002E63617022
:100DC000736C6F636B5F746F5F636F6E74726F6C65
:100DD0003A20000A002575002E737761705F636FFB
:100DE0006E74726F6C5F636170736C6F636B3A20CB
:100DF000000A0025303258006B65796D61705F63C1
:100E00006F6E6669672E7261773A20000A00257559
:100E1000002E6D6F7573653A20000A002575002E4F
:100E20006B6579626F6172643A20000A0025750073
:100E30002E6D61747269783A20000A002575002EC3
:100E4000656E61626C653A20000A002530325800F8
:100E500064656275675F636F6E6669672E7261773E
:100E60003A20000A0025750064656661756C745F40
:100E70006C617965723A20003F000A6D6F75736589
:100E80003A206F66660A000A6D6F7573653A206FC7
:100E90006E0A000A6B6579626F6172643A206F6650
:100EA000660A000A6B6579626F6172643A206F6E40
:100EB0000A000A6D61747269783A206F66660A00EA
:100EC0000A6D61747269783A206F6E0A000A64656F
:100ED0006275673A206F66660A000A646562756724
:100EE0003A206F6E0A000A0A4A756D70696E6720B3
:100EF000746F20626F6F746C6F616465722E2E2E3A
:100F00002000433E2000436C656172696E67204596
:100F10004550524F4D0A006565636F6E6669673ACA
:100F20000A005B735D004B6579626F6172642073C8
:100F3000746172742E0A005B575D005B535D005B49
:100F4000525D005B445D005B435D000403300000C4
:100F500000120341007400720065007500730036D2
:100F600000320000000E03500072006F0066006542
:100F700000740000000403090409025B000301007F
:100F8000A0FA090400000103010100092111010078
:100F9000012240000705810308000A09040100013D
:100FA00003000000092111010001228100070582D0
:100FB0000320000A090402000203000000092111B5
:100FC0000100012222000705830320000107050319
:100FD000032000011201100100000008EDFE626014
:100FE0000100010203010631FF0974A10109751511
:100FF0000026FF009520750881020976150026FF5E
:1010000000952075089102C005010902A101850221
:101010000901A100050919012905150025019505FA
:1010200075018102950175038101050109300931BE
:101030001581257F95027508810609381581257F60
:10104000950175088106050C0A38021581257F95E2
:101050000175088106C0C005010980A10185031939
:10106000012AB700150126B700950175108100C04F
:10107000050C0901A101850419012AA00215012608
:10108000A002950175108100C005010906A10105A6
:101090000719E029E71500250195087501810295DA
:1010A00001750881010507190029FF150026FF00B9
:1010B0009506750881000508190129059505750132
:1010C0009102950175039101C00011241FBECFEF5D
:1010D000DAE0DEBFCDBF04B603FE27C08091D702A1
:1010E0009091D802A091D902B091DA028730904B4A
:1010F000A740B04BD1F41092D7021092D8021092B0
:10110000D9021092DA0214BE84B7877F84BF0FB66B
:10111000F894A89580916000886180936000109297
:1011200060000FBEE0E0F8E3099511E0A0E0B1E057
:10113000E4E0FAE602C005900D92A43AB107D9F7AF
:1011400022E0A4EAB1E001C01D92A73DB207E1F799
:101150000E94B62E0C9490340C940000FF93EF93F1
:10116000E091A401F091A501309709F00995EF9164
:10117000FF910895FC018591803011F0EFDFFBCFE6
:101180000895FF27E0E230E247FF0CC0419597FF4A
:1011900009C0EDE26095709580959095611D711D77
:1011A000811D911D27FF02C0219530E350E2AA273F
:1011B000660F771F881F991FAA1FA41710F0A41B82
:1011C00063955A95A9F7AA3008F0A95FA05DAF937F
:1011D000F395611571058105910541F7ED3211F423
:1011E000EF93F395F21718F43F93F395FBCF8F919C
:1011F000B5DFFA95E1F70895E991F991859180308D
:1012000021F0853219F0AADFF9CF089520E0E894A3
:1012100055915532C1F3503311F4689455915A33B6
:1012200048F4505390F3220F022E220F220F200D6C
:10123000250FF4CF0EF4219589919991533619F326
:10124000533729F1533559F1BC0188279927E89480
:101250005C3621F48991999168945591543639F40A
:1012600046EF7EF077FF0DC08FEF9FEF0AC0553736
:101270004AE039F0583540E121F0523642E009F0B9
:101280000895FF93EF937DDFEF91FF91B7CFFF9329
:10129000EF93FC0181918030B9F360DFFBCFFF93C6
:1012A000EF9368DFF1CFDF93CF93CDB7DEB725960D
:1012B000A3DFCF91DF910895CF93DF939C01FB01D2
:1012C0009A9581159F4160F5E901CC27D170D9012C
:1012D000AA27B270B90166277470A9014427587013
:1012E00034FF10C080E1CD2B09F480E0AB2B09F076
:1012F0008062672B09F08064452B09F08068DF91DC
:10130000CF91099481E0CD2B09F480E0AB2B09F05B
:101310008260672B09F08460452B89F38860EFCFEA
:10132000DF91CF910895CF93DF93EC01805E910917
:10133000089720F066EF7AE1209711F466E178E1F2
:10134000CE010E945C098C2FDF91CF910C9417176E
:10135000CF93DF93EC010E94AD17CE01805E91091F
:10136000089720F06DEF7AE1209711F46DE178E1B4
:10137000CE01DF91CF910C945C09CF93DF93D82FEE
:10138000C92F0E9493098D2F9C2FDF91CF910C9430
:10139000A80981E0089581E008950C94CB0908958F
:1013A0000C94CF091F93CF93DF9300D000D00F92FE
:1013B000CDB7DEB749835A836B8330912702898189
:1013C0009A8131111DC06623B9F02223A9F00E9431
:1013D000BF20182F682F89819A810E946820698117
:1013E0007A81812F0F900F900F900F900F90DF91C7
:1013F000CF911F910C94B50A0E949620182FEFCF21
:101400000E94BF2069817A81EDCFFC01262F4081A7
:1014100051816281738184810C94D209CF93DF93CF
:10142000D82FC92F60E00E94050A6D2F7C2FDF9115
:10143000CF910C94D0090E943722811102C00E94E2
:10144000D4220E94FB120C94BF0C0C94C20C8F701F
:1014500041F08A3018F4835E90E008958650990B2D
:10146000089587E290E0089508950C94340A81E08D
:1014700008950C94370ACF93C82F0E94350A8C2FF9
:10148000CF910C94390A08950E941A1B0E94430AB6
:101490002FEF84E39CE0215080409040E1F700C0B2
:1014A00000000C9417240F931F93CF93DF93EC014C
:1014B00061E00E94050A8C01BE010E94CD098823CB
:1014C00071F1BE01C8010E949813882341F1BE0149
:1014D000C8010E942114882311F1BE01C8010E9495
:1014E00065148823E1F0BE01C8010E9438158823E5
:1014F000B1F0BE01C8010E944C12882381F08A819C
:10150000882341F101308CE5180779F00E3D8CE518
:101510001807E9F001151C45E9F40E94440A80E02F
:10152000DF91CF911F910F9108959091A402892F7F
:101530008E7F90FF81608093A40280FF05C084E4C9
:1015400092E00E94BA08EBCF82E392E0FACF0E94C9
:10155000D422E5CFCE01DF91CF911F910F910C9452
:10156000C90990E080E008950895972F70E02DE07C
:10157000929F600D711D1124FB0191E4899FE00D84
:10158000F11D1124EE0FFF1FE455FF4F859194913B
:101590000895FC01EE0FFF1FEB5AFD4F85919491CA
:1015A0000895CF93DF930E94B50A0E94E30BEC01EC
:1015B000811520E5920708F04BC0811530E49307B0
:1015C00008F0B2C0803E910518F5803C910508F006
:1015D0009FC0883A910570F4853A910508F095C04E
:1015E0008130910529F10497813A910508F1D0E005
:1015F000C0E01EC08F3B9105D1F3C85AD0E0CC0F9C
:10160000DD1FC65EDE4F0990D881C02DD46410C0A6
:10161000811540E2940780F48F3F910509F040F472
:10162000883E910528F0805F9109D0654097F8F6D3
:10163000CE01DF91CF910895C11580E3D80708F45A
:101640006DC0CE019927D3FD6CC0EC01D06CF0CFFA
:10165000C11595E5D90760F5C11524E5D20708F055
:1016600094C0C11533E5D30778F4C11542E5D4071A
:1016700008F07AC0C11581E5D80708F458C0DC2FFE
:10168000CC27C16FD06AD4CFCE018370992721E0D7
:1016900030E002C0220F331F8A95E2F7C695C69547
:1016A00090E2C99FE0011124C22BD32BDA68C0CF8E
:1016B000C1152AE5D207B0F4C11539E5D30708F002
:1016C00074C0C11546E5D40708F464C0CE0198552E
:1016D0008F3F910511F008F08ACFDC2FCC27C06F27
:1016E000D06AA6CFCE0190568115904208F07FCFE8
:1016F0008D2F8F710E947B0C90E0982F8827882770
:101700009F719C012C2BE9014EC0A497D06490CF0F
:10171000805C91090E94C90AEC018ACFCE019F70BA
:10172000F9CFEC01D86C84CFDF70D06A81CFCE01C5
:1017300074E0969587957A95E1F783702C2F26951E
:101740002695237040E2249F90011124382B8C2F82
:101750008370C1E0D0E002C0CC0FDD1F8A95E2F7B4
:10176000C22BD32BDC6864CFCE018370992721E094
:1017700030E002C0220F331F8A95E2F7C695C69566
:1017800080E2C89FE0011124EBCFDC2FCC27C46F8F
:10179000D06A4ECF8C2F0E947B0CC82FD0E0DC2F5C
:1017A000CC27CC27DF71D06243CF8C2F8F700E9463
:1017B0007B0C34E0D695C7953A95E1F7CF70DC2FD6
:1017C000C82FD06935CF803E910599F1C8F4813397
:1017D000910509F476C048F48932910509F46AC08C
:1017E0008A32910509F474C0089589339105D1F0C6
:1017F00082389105B9F08533910509F454C00895F4
:10180000843E910599F138F4823E9105F9F0833ECA
:10181000910509F10895863E910599F1873E91055C
:10182000B9F108952091AA022370A1F080EE90E012
:1018300008952091AA0220FD52C03091AB0230FFE2
:1018400009C024FF4FC090E080E004C02091AA02AC
:1018500022FDF7CF08952091AA0222FD46C03091C3
:10186000AB0230FDE3CF24FFF5CFEDCF2091AB02EB
:1018700021FFF0CF8091AA0284FDE5CF87EE90E0B2
:1018800008952091AA0223FFE5CF24FDDCCFF6CFF7
:101890002091AA0223FD2CC03091AB0231FFE3CF8F
:1018A00084EE90E008952091AA0225FFD3CF89E22B
:1018B00090E008952091AA0225FFCCCF85E390E027
:1018C00008952091AA0226FFC5CF8AE290E00895EC
:1018D0002091AA0226FFBECF81E390E0089589E31C
:1018E00090E0089583EE90E0089582EE90E00895F0
:1018F00086EE90E008959091AA0292FF06C0282FEC
:1019000028712830F9F4877F846093FF06C0282F60
:1019100028712831F1F4877E84612091AB0220FF89
:1019200006C0382F38713830D9F4877F816021FFA5
:1019300006C0282F28712831D1F4877E816194FD5B
:10194000877E0895282F24712430F9F68B7F8860D4
:10195000DCCF282F2471243101F78B7E8861DDCF05
:10196000382F3171313019F78E7F8860E0CF282F02
:101970002171213121F78E7E8861E1CF08950C9489
:10198000BE0C08950C94C10CE82FF0E0EE0FFF1F81
:10199000EA55FE4F808191810895CF92DF92EF92B8
:1019A000FF920F931F93CF93DF9385E692E00E94FF
:1019B000BA0886EAE82E81E0F82ED0E0C0E090E692
:1019C000C92E92E0D92E07E512E0DF93CF93DF9284
:1019D000CF920E9453098DE592E00E94BA08F70168
:1019E000819191917F010E942A229F938F931F934F
:1019F0000F930E94530985E592E00E94BA08219650
:101A00008DB79EB708960FB6F8949EBF0FBE8DBFD8
:101A1000C530D105D1F6DF91CF911F910F91FF9085
:101A2000EF90DF90CF90089580EA8A95F1F70895BE
:101A3000CF93DF93C8E4D1E025E531E041E050E009
:101A40008991E82FE295EF70A1E2AE0FB0E0FC9132
:101A50008F70BA0101C0660F8A95EAF7962F9095AC
:101A60009F239C93EE5DF0E08081862B80832C1772
:101A70003D0731F7C5E5D1E02AE531E041E050E02E
:101A80008991E82FE295EF70A1E2AE0FB0E0FC91F2
:101A90008F70BA0101C0660F8A95EAF7962F90956C
:101AA0009F239C93EE5DF0E08081862B80832C1732
:101AB0003D0731F78AE0E0EBF1E0DF01982F1D925E
:101AC0009A95E9F7E6EAF1E0DF011D928A95E9F7D8
:101AD00085E00E94230EDF91CF910C941B0A2F9278
:101AE0003F924F925F926F927F928F929F92AF92AE
:101AF000BF92CF92DF92EF92FF920F931F93CF93FB
:101B0000DF9300D000D0CDB7DEB788E4882E81E027
:101B1000982ED12CC12CF12CAA24A394B12C2AEB01
:101B2000222E21E0322EF40181914F01F82FF295FF
:101B3000FF70F9830F2F0F5D10E0F80190818F7017
:101B4000350101C0660C8A95EAF7892F86298083C2
:101B5000F981FE5D8F2F90E09C838B83FC01808157
:101B6000E62CE0948E2180830E94140D95010C2CAC
:101B700002C0220F331F0A94E2F7290140945094C7
:101B8000A0EBB1E045E551E01A828D919D91FA01FB
:101B90006191AF016983E62FE295EF70E05EF0E0BE
:101BA000608170E0E981EF7002C075956795EA95F4
:101BB000E2F760FD44C0BC01622B732B86179707C8
:101BC00031F0FD0132977183608381E08A832A16A8
:101BD0003B06D9F6F80180818E218083EB81FC8160
:101BE0008081682A6082FA81FF2A6FEFC61AD60ABE
:101BF0008DE0C816D10409F096CF2F2D45E066EA96
:101C000071E080EB91E00E94240E0E94250A8F2D46
:101C10000F900F900F900F90DF91CF911F910F9128
:101C2000FF90EF90DF90CF90BF90AF909F908F90FC
:101C30007F906F905F904F903F902F900895BC01E0
:101C400064217521BBCF0895FF920F931F93CF930B
:101C5000DF93F82E092F162FD72FC42F222349F0F8
:101C600081E08093BC010E94B8239093BB018093D4
:101C7000BA018091BC018823A1F08091BA019091B2
:101C8000BB010E94E423069760F0EF2DF02FA12FF7
:101C9000BD2F90E080E0D0E08C179D0744F01092BB
:101CA000BC01DF91CF911F910F91FF900895219179
:101CB00031912D933D930196EFCFAF92BF92CF928A
:101CC000DF92EF92FF920F931F93CF93DF93362F04
:101CD000472FE82FF0E0EF5FFA4F71110EC06491CB
:101CE000762F862FDF91CF911F910F91FF90EF906C
:101CF000DF90CF90BF90AF900895C72FD0E0249190
:101D000086E0689F700111240FEF10E0C701B80151
:101D10000E941A34832F90E0880F991F35E5369F73
:101D2000F001379FF00D11248E1B9F0B982F990FF8
:101D3000980FF801EC1BFD0B2E9FD0012F9FB00DCB
:101D40001124EB2F949FA0011124452F55276801E2
:101D5000C41AD50AA601249F6001259FD00C112426
:101D60008D2D5801A91AB108AC9EA001AD9E500D51
:101D7000BC9E500D1124452F5527041B150B209F89
:101D8000A001219F500D112463307105D9F09CEF03
:101D9000E91693E0F90668F461307105B9F0623034
:101DA0007105C1F09FEFE916F10448F48B2FE52F80
:101DB00006C06430710589F066307105B9F36E2F85
:101DC000722F90CFED2D822F2B2FF9CFE22F2D2DBB
:101DD0008B2FF5CF852FE22FF7CF822F252FEFCF37
:101DE000CF93DF93982F762F842FE901692F0E94DC
:101DF0005D0E798368838A83DF91CF910895809106
:101E00000802982F9E7F39F48091080281708260C9
:101E10008093080208958430B8F7089588E090E030
:101E20000C9450340F931F93CF93DF938B01D82FD3
:101E3000C92F0E94FF0EA8016D2F7C2F88E090E033
:101E4000DF91CF911F910F910C946E34E8E0F2E096
:101E500083E0808311828FEF82838383148263E027
:101E600070E08FEF9FEF0C94120F8091A40280FF1F
:101E700076C088EE94E09F938F930E9453098091DF
:101E8000A4020F900F9080FF6AC0809108028170B9
:101E90001F928F938BEC94E09F938F930E94530932
:101EA0008091A4020F900F900F900F9080FF57C069
:101EB0008091080286951F928F9380EB94E09F9308
:101EC0008F930E9453098091A4020F900F900F905E
:101ED0000F9080FF44C0809109021F928F9386E982
:101EE00094E09F938F930E9453098091A4020F90D6
:101EF0000F900F900F9080FF32C080910A021F92C6
:101F00008F938CE794E09F938F930E945309809165
:101F1000A4020F900F900F900F9080FF20C080912F
:101F20000B021F928F9382E694E09F938F930E94FF
:101F300053098091A4020F900F900F900F9080FF93
:101F40000EC080910C021F928F9386E494E09F93C1
:101F50008F930E9453090F900F900F900F90089548
:101F6000CF93DF9300D000D0CDB7DEB780910C02C5
:101F7000833018F48F5F80930C0280910802909157
:101F80000902A0910A02B0910B0289839A83AB8364
:101F9000BC83BC01CD010F900F900F900F90DF918B
:101FA000CF910C94120FCF93DF9300D000D0CDB718
:101FB000DEB780910C02882319F0815080930C02C7
:101FC0008091080290910902A0910A02B0910B023F
:101FD00089839A83AB83BC83BC01CD010F900F90A2
:101FE0000F900F90DF91CF910C94120F70E00C9432
:101FF000E312609101018091080280FF0AC0809184
:10200000000123E0829FC001112483549E4F0C9451
:10201000F60F809102019091030123E0829FF0016D
:102020001124E354FE4F891750F711821082128257
:102030008F5F3396F8CFCF93DF9300D000D0CDB72A
:10204000DEB7809108028E7F80930802809108029B
:1020500090910902A0910A02B0910B0289839A83A0
:10206000AB83BC83BC01CD010E94120F8091A402FE
:1020700080FF0FC08091080281701F928F9388ECBF
:1020800092E09F938F930E9453090F900F900F90AF
:102090000F909FEFA0E7B2E09150A040B040E1F771
:1020A00000C000000F900F900F900F90DF91CF9124
:1020B0000C94F90F9091080290FF14C090910201C6
:1020C0002091030133E0939FF0011124E354FE4F6C
:1020D000921710F00C94F90F8183608342839F5F05
:1020E0003396F6CF0895EF92FF920F931F93CF93FD
:1020F000DF9300D000D000D00F92CDB7DEB7182FFD
:10210000062FF42EE22E8091080280FF49C0E82FAE
:10211000E695F0E0E65AFE4F9081909306028E7F9E
:10212000823059F49E012F5F3F4F812F0E94F00EA5
:102130004B8169818A810E945A1010930902009391
:102140000A02F0920B02EE20C1F1809108029091F8
:102150000902A0910A02B0910B028C839D83AE8389
:10216000BF83BC01CD010E94120F8091A40280FFA9
:1021700017C080910B021F928F9380910A021F92C9
:102180008F93809109021F928F9383EA92E09F932D
:102190008F930E9453090FB6F894DEBF0FBECDBFD8
:1021A00027960FB6F894DEBF0FBECDBFDF91CF915B
:1021B0001F910F91FF90EF9008958091A40280FFEE
:1021C000EFCF1F92FF921F920F931F921F938CE7E6
:1021D00092E0DDCF282FE8E0F2E081814381628147
:1021E000885F0C94731081E00C94EA10282FE8E0CB
:1021F000F2E081814381628188500C94731081E008
:102200000C94F610282FE8E0F2E0628131E1630FD0
:1022100008F46FEF438181810C94731081E00C947A
:102220000211282FE8E0F2E0628131E1631B08F43B
:1022300060E0438181810C94731081E00C94111152
:10224000282FE8E0F2E0438131E1430F08F44FEF3B
:10225000628181810C94731081E00C942011282FED
:10226000E8E0F2E0438131E1431B08F440E06281A1
:1022700081810C94731081E00C942F1120E00C9458
:102280007310CF93DF9300D000D0CDB7DEB780912D
:10229000080280FF41C0817082608093080266233B
:1022A00089F18091080290910902A0910A02B091EF
:1022B0000B0289839A83AB83BC83BC01CD010E944E
:1022C000120F8091A40280FF0FC0809108028695B2
:1022D0001F928F938CE893E09F938F930E945309F2
:1022E0000F900F900F900F9040910B0260910A0297
:1022F000809109020F900F900F900F90DF91CF9176
:102300000C943E118091A40280FFEECF1F9281E0D9
:102310008F938EE693E0E0CF0F900F900F900F9089
:10232000DF91CF910895682F81E00C94411181E0F5
:102330000C949311682F9091080296958FEF890F56
:10234000913009F481E00C94411181E00C949A11D0
:1023500061E00C9441118091080281608093080231
:102360008091A40280FF0DC01F9281E08F9380E0D6
:1023700093E09F938F930E9453090F900F900F90BB
:102380000F908091080286950C94A8118091A40268
:1023900080FF10C080910802809581701F928F93FA
:1023A00087E393E09F938F930E9453090F900F90C0
:1023B0000F900F908091080280FD0C941B100C94DC
:1023C000AB1160E00C9441118091050281115EC057
:1023D0008091A40280FF14C08FE294E09F938F93BA
:1023E0000E9453098091A4020F900F9080FF08C0B3
:1023F00089E194E09F938F930E9453090F900F906F
:102400000E943722811110C08091A40280FF08C071
:1024100081EF93E09F938F930E9453090F900F9049
:102420000E94D4220E94260F0E940E0F6093080281
:102430007093090280930A0290930B026E7FC1F49D
:102440008091A40280FF08C088EA93E09F938F9355
:102450000E9453090F900F900E94260F0E940E0FAA
:10246000609308027093090280930A0290930B0212
:102470000E94FF0E0E94350F8091080280FF03C06A
:1024800086950E94E11181E0809305020895FA018A
:1024900081110994FB01FDCF0F931F93CF938C0102
:1024A000FB01C281CC2309F44DC00E945C218272E1
:1024B000F801E25CFC45E431F10538F4EE56FB4CE2
:1024C0000C9442340E94C611C0E08C2FCF911F9112
:1024D0000F91089545EA51E167E971E10E944712C1
:1024E000F3CF47E951E165EA71E1F8CF4FEF50E1F1
:1024F00063EF70E1F3CF43EF50E16FEF70E1EECFA8
:102500004DE151E16EE071E1E9CF4EE051E16DE165
:1025100071E1E4CF4BE351E16CE271E1DFCF4CE2DA
:1025200051E16BE371E1DACF43ED5FE060EB7FE017
:10253000D5CF40EB5FE063ED7FE0D0CF81E00E943C
:10254000A811C2CFC1E0C1CF9C01DB0184B1942F9F
:102550009F7061E070E001C0660F9A95EAF7862BE4
:1025600084B942954F704E5DE42FF0E08081462F94
:10257000409548238081682B5FB7F894CD01880F80
:10258000991F8A0F9B1F820F931F8217930741F495
:102590005FBF87EC90E00197F1F700C0000008955D
:1025A000F90171919F01E8E065B9000000C077FF73
:1025B00045B9770F000000C000C000C045B900C099
:1025C000EA9591F7E2CF47E30C94A412CF93DF93FF
:1025D000EC01FB0197FF0BC08281882341F00E9430
:1025E0003913CE019F770E947B130E94641381E010
:1025F000DF91CF9108958CE090E00E944834482FFD
:1026000050E070E060E040930E0250930F02609340
:102610001002709311029091A40290FF0CC01F92BF
:102620008F9380E296E09F938F930E9453090F90BF
:102630000F900F900F90089560910E028CE090E043
:102640000C945C3480930E020E941C138091A402AF
:1026500080FF0EC080910E021F928F9381E096E062
:102660009F938F930E9453090F900F900F900F909C
:1026700008950E945C2180930D020E947021809138
:102680000E028230A9F030F481110DC082EE0E945A
:10269000171702C0843099F08FE39CE90197F1F796
:1026A00000C00000089588E193E00E94BD09F4CFC6
:1026B00082EE0E94171787E50E940318EDCF86EE81
:1026C0000E94031888E1F8CF80910E02823019F041
:1026D00030F481110AC082EE0E94AD1702C084302E
:1026E00041F080910D020C946D218CE20E94031840
:1026F000F8CF88E2FBCF0F931F93CF93DF938C012A
:10270000CCE0D0E0C8010C2E02C0969587950A94C3
:10271000E2F78F700E94270A0E9403182497CC3F8B
:102720008FEFD80779F7DF91CF911F910F9108951F
:102730000F931F93CF93DF93EC018B01FB018281F9
:10274000882351F00E945C21CE01815E9C4585303A
:10275000910510F40E942213B801CE01DF91CF91B0
:102760001F910F910C94E6120F931F93CF93DF9359
:10277000C62FD42F022FFC0182818823C9F06093D9
:1027800014020E94B823909313028093120280E2F5
:102790008C0F883008F050C0C77081E001C0880FEE
:1027A000CA95EAF7DF91CF911F910F910C941618FB
:1027B00010911402161335C08091120290911302E9
:1027C0000E94E423883C910560F5C0E2CD0F1D17FF
:1027D000B9F080E2810F883040F4177081E001C0C9
:1027E000880F1A95EAF70E941D18C83048F481E056
:1027F0009D2F977001C0880F9A95EAF70E941618CE
:10280000802F0E940318C830B8F4D77081E001C04F
:10281000880FDA95EAF7DF91CF911F910F910C9411
:102820001D1880E28C0F883038F4C77081E001C039
:10283000880FCA95EAF7EFCFDF91CF911F910F91E3
:1028400008959C01CB01233F4CE5340769F190F4D6
:10285000283DFCE53F0721F1293D4CE5340781F196
:10286000273D3C45B1F0FC018281882361F1109243
:1028700014020895253FFCE53F07D1F0263F4CE5C3
:102880003407D1F0243F3C4571F727E245EE64EE72
:1028900003C026E241EE61EE0E94B41380E0089589
:1028A00027E245EE65EEF8CF26E241EE60EEF4CF8A
:1028B00026E241EE62EEF0CF27E245EE66EEECCF87
:1028C00028E241E0EFCF81E00895CF93DF93EC0160
:1028D000FB018281882309F4C9C0C631FCE5DF070A
:1028E000E0F4C2309CE5D907F0F00E944A229093B0
:1028F000AB028093AA02C631ECE5DE0720F5C230B8
:10290000FCE5DF0798F48091AA029091AB020E9447
:1029100058220E941A1B80E006C09E012A5F3C4597
:102920002930310510F3DF91CF910895FE01E35076
:10293000FC458091AA028160E331F10588F4EA55F3
:10294000FB4C0C944234CA5FDC45C930D105D8F643
:10295000C754DB4CFE010C9442348091AA02826081
:102960008093AA02D0CF8091AA028460F9CF80918F
:10297000AA028860F5CF8091AB0281608093AB02A0
:10298000C2CF8091AB028260F9CF8091AA028061B0
:10299000E7CF8091AA028062E3CF8091AA0280648F
:1029A000DFCF0E941A1B8091AA028068D9CF809144
:1029B000AA028C60D5CF8091AB028360DFCF80917B
:1029C000AA028E7FCDCF8091AA028D7FC9CF809140
:1029D000AA028B7FC5CF8091AA02877FC1CF809149
:1029E000AB028E7FCBCF8091AB028D7FC7CF809122
:1029F000AA028F7EB5CF8091AA028F7DB1CF809140
:102A0000AA028F7BADCF0E941A1B8091AA028F77FA
:102A1000A7CF8091AA02837FA3CF8091AB028C7F46
:102A2000ADCF8091AA0282FB992790F921E09227ED
:102A300090FB82F990FB83F993CF8091AB02982FA2
:102A4000909591708E7F892B90FB81F997CF0E9492
:102A50001A1B9091AA02892F97FB87F9805880CF83
:102A600081E00E94D6224FCF80E0FBCF81E05BCF98
:102A7000CF93DF93EB0186319C4511F50E945C21D9
:102A80009A81992399F08A7A91E009F490E09093E1
:102A90001502811109C089E20E9437210E94AE21EE
:102AA00080E0DF91CF91089585E3F6CF8091150204
:102AB000811104C089E20E943E21F0CF85E3FBCF63
:102AC00081E0EFCF90931B0280931A020895E0916A
:102AD0001A02F0911B02309721F00190F081E02D55
:102AE000099480E00895EF92FF920F931F93CF9384
:102AF000DF938C01E0911A02F0911B023097B1F143
:102B00000280F381E02D09958091A40282FF2EC0FE
:102B100080FF04C088E496E00E94BA08E8017801CA
:102B200088E0E80EF11C02E416E08091A40280FF28
:102B30000BC088811F928F931F930F930E9453099C
:102B40000F900F900F900F902196CE15DF0569F72B
:102B50008091A40280FF0AC080E496E0DF91CF91CB
:102B60001F910F91FF90EF900C94BA08DF91CF91D5
:102B70001F910F91FF90EF900895DC01E0911A02F0
:102B8000F0911B02309739F082E08C930480F5813C
:102B9000E02DCD0109940895209118023091190279
:102BA0002817390771F09093190280931802E09169
:102BB0001A02F0911B02309721F00680F781E02D78
:102BC00009940895209116023091170228173907A9
:102BD00071F09093170280931602E0911A02F0911F
:102BE0001B02309721F00084F185E02D09940895AF
:102BF00085B7806885BF85B7806885BF08950895CB
:102C000008950C94FF1508950C9403160E94F8156E
:102C10000E9400160C94011681E008950C940C1685
:102C20000E94AF230E94180D0E9428240E94E411E4
:102C30000C940416CF93C82F8091A40282FF1EC06B
:102C400080FF1CC081E696E00E94BA088091A40231
:102C500080FF14C01F92CF938CE596E09F938F93D3
:102C60000E9453098091A4020F900F900F900F9033
:102C700080FF04C08AE596E00E94BA088C2FCF91AD
:102C80000C943B0A9F92AF92BF92CF92DF92EF9249
:102C9000FF920F931F93CF93DF9300D000D00F923A
:102CA000CDB7DEB70E946F0D0E940E16882309F47F
:102CB0006EC05DE1A52E52E0B52E10E000E0902E32
:102CC000802F0E94C40C7C01F501C190D1905F015E
:102CD000C816D90609F455C08091A40281FD0E944E
:102CE000CD0C96012E253F2580E0CC24C394D12C19
:102CF000A9014C215D21452BF1F189839A82EC20B9
:102D0000FD2081E0EF2809F480E08B830E94B82346
:102D10008160782F9D838C8349815A816B818D815D
:102D20000E94E916000F111FF801E35EFD4F80813C
:102D30009181C826D926D182C0820E9449260E944C
:102D4000671590911C02891799F10E94671580936D
:102D50001C020F900F900F900F900F90DF91CF916A
:102D60001F910F91FF90EF90DF90CF90BF90AF90A9
:102D70009F900C941A168F5FCC0CDD1C8D3009F0DF
:102D8000B7CF0F5F1F4F0530110509F098CF8FEFB8
:102D900089838A831B820E94B8238160782F9D8358
:102DA0008C8349815A816B818D810E94E916C5CF40
:102DB0000F900F900F900F900F90DF91CF911F9178
:102DC0000F91FF90EF90DF90CF90BF90AF909F90CA
:102DD0000895CF93DF93CDB7DEB72B970FB6F89456
:102DE000DEBF0FBECDBF4F83588769877A878B8739
:102DF0001E8285E0FE013796DE01119601900D924C
:102E00008A95E1F749815A816B817C818D819E8110
:102E10002B960FB6F894DEBF0FBECDBFDF91CF91DA
:102E20000C947C1DFC01808191810C940121CF9335
:102E3000C82F882309F48FC08238C1F40E94671517
:102E400081FD89C089E30E9437210E94AE212FEFC6
:102E500031EE84E0215030408040E1F700C00000B6
:102E600089E30E943E21CF910C94AE218338A1F4D6
:102E70000E94671580FD6FC083E50E9437210E9484
:102E8000AE219FEF21EE34E0915020403040E1F739
:102E900000C0000083E5E5CF8438A1F40E946715E7
:102EA00082FD59C087E40E9437210E94AE218FEF36
:102EB00091EE24E0815090402040E1F700C00000F6
:102EC00087E4CFCF8CEF8C0F813AB8F48C2F0E941F
:102ED000312B811140C06C2F80910501909106012A
:102EE0000E94ED22882329F08C2F0E943E210E940F
:102EF000AE218C2F0E943721B6CF80E28C0F883014
:102F000048F4C77081E001C0880FCA95EAF70E94B3
:102F10005F21A9CF8BE58C0F833038F42C2F2452FE
:102F2000330BC901CF910C94CC15E8E5EC0FE731D8
:102F300050F4F0E0EE0FFF1FE45AFE4F80819181C4
:102F4000CF910C94E215C03F30F08C2F0E94D52415
:102F5000CF910C94BC25CF910895882309F452C0D9
:102F6000823871F40E94671581FF4CC089E30E948A
:102F700037210E94AE2189E30E943E210C94AE21AC
:102F8000833859F40E94671580FF3CC083E50E9496
:102F900037210E94AE2183E5EFCF843859F40E9497
:102FA000671582FF2FC087E40E9437210E94AE215F
:102FB00087E4E2CF9CEF980F913AF0F290E2980FFD
:102FC000983050F4877091E001C0990F8A95EAF724
:102FD000892F0E946521D2CF9BE5980F933020F472
:102FE00090E080E00C94CC1598E5980F973120F490
:102FF00090E080E00C94E215803F20F00E943D2597
:103000000C94BC250895CF93C82F0E941717C9337D
:1030100049F42FEF87EE93E0215080409040E1F794
:1030200000C000008C2FCF910C94AD17882321F0A5
:103030000E945F210C94AE210895882321F00E9404
:1030400065210C94AE210895AF92BF92CF92DF928A
:10305000EF92FF920F931F93CF93DF9300D000D096
:103060000F92CDB7DEB76C016D837983FC010581CA
:1030700002950F70128111110E9481210E94552129
:10308000E82E882371F01123B1F08D81805E8830A5
:1030900090F082E00E94F9210E94552191E0E82EF3
:1030A000E926A980A2949FE0A922B12CF501EE5354
:1030B000FB4C0C944234E12CF4CF09810F70F98160
:1030C000F07F11F00295007F1123B1F0002361F031
:1030D0008D81805E883018F02D81211109C0802FEC
:1030E0000E945F210E94AE218D810E94171715C09A
:1030F000802F0E947321F6CF8D810E94AD1700238F
:1031000061F08D81805E883018F04D81411133C0AF
:10311000802F0E9465210E94AE2148E0A41AB108C8
:1031200054E0A516B10420F40E9467150E943B0AE2
:10313000EE2009F418C20E94512180FD14C2F6014C
:1031400012820E944B210E94581FC6010E94DA1A67
:103150000E944B210F900F900F900F900F90DF91D6
:10316000CF911F910F91FF90EF90DF90CF90BF9084
:10317000AF900C94891F802F0E947921CCCF598168
:103180005F70F52E6981607F603219F0F29480EFF4
:10319000F8227D81772369F0713049F1112391F193
:1031A000002351F1F601858180FF9ECF8F708583CA
:1031B00023C0112381F0011106C00E9495218F299F
:1031C0000E941618AACF0130C1F70E9495218F29BD
:1031D0000E949B21A2CF011106C00E94A4218F2D25
:1031E0000E941D189ACF013009F497CFF6CF112312
:1031F00029F0063008F091CF8F2DE2CF053008F08E
:103200008CCFEDCF002359F3FD81F93349F42FEF33
:1032100047EE53E0215040405040E1F700C000002D
:103220008D810E94AD1779CF8981869586958370AF
:1032300069F0813009F071CF8D81998193701111FE
:1032400002C090E080E00E94E21567CF8D819981F5
:103250009370111102C090E080E00E94CC155DCF08
:10326000112311F16D81653F99F0663FB9F0643F1C
:1032700049F480912802909129028160909329025B
:10328000809328028D810E94D5240E94BC2545CFC1
:1032900080912802909129028260F0CF80912802CB
:1032A000909129028460EACF7D81753F89F0763F55
:1032B000A9F0743F49F480912802909129028E7FF1
:1032C00090932902809328028D810E943D25DDCFB5
:1032D00080912802909129028D7FF2CF809128025F
:1032E000909129028B7FECCF8981837009F059C0BE
:1032F000111113CF4D81429546954770440F440FED
:103300008D818F7090E0B0E0A0E0042E04C0880FA3
:10331000991FAA1FBB1F0A94D2F7ED8100E010E0AD
:103320009801E4FF0FC00FE010E020E030E004C09F
:10333000000F111F221F331F4A95D2F700951095D9
:1033400020953095F981F695F695F370FD83B901D6
:10335000A801482B592B6A2B7B2B49835A836B83FB
:103360007C83F23081F0F330A9F0F13029F0CB0109
:10337000BA010E94CE1ED1CE69817A818B819C8157
:103380000E94A61ECACE69817A818B819C810E948F
:10339000F61EC3CE69817A818B819C810E94A41E16
:1033A000BCCE112309F445C0598150FFB6CE4D81E2
:1033B000429546954770440F440F8D818F7090E081
:1033C000B0E0A0E0042E04C0880F991FAA1FBB1F05
:1033D0000A94D2F77D8100E010E0980174FF0FC0DD
:1033E0000FE010E020E030E004C0000F111F221FAA
:1033F000331F4A95D2F70095109520953095E981B5
:10340000E695E695E370ED83B901A801482B592BA9
:103410006A2B7B2B49835A836B837C83E230A1F038
:10342000E330C9F0E13049F0CB01BA010E94172026
:1034300074CE698161FF71CEBACF69817A818B8147
:103440009C810E94EF1F69CE69817A818B819C816A
:103450000E943F2062CE69817A818B819C810E948B
:10346000221F5BCE59815F705983112329F0852F6C
:103470000E94581F8D81A4CE8D810E941D188981C4
:103480000E94891F4ACE6D81623F99F160F4603FCE
:10349000D9F0613F39F1112309F444C0011124CE60
:1034A00089818F7123C07D81733F41F1743F99F70A
:1034B000112371F189818F7189830E94581F63E004
:1034C00089810E94E42129CE112341F0053008F0C2
:1034D00024CE89818F710E94BE1F1FCE063008F056
:1034E0001CCEF7CF89818F71112351F20E94581F92
:1034F00014CE89818F711123C9F3C2CF112329F012
:1035000089818F710E94331F08CE0E942E1F05CE25
:1035100081E00E94F921023008F4FFCD82E00E9490
:10352000F921FBCD002361F09D81993309F078CE1C
:10353000EFEFF7EE23E0E150F0402040E1F76ECEF0
:1035400089818F719DCF49814F706D81C6010E9425
:10355000B10A0E94161EE1CD49814F706D81C601EE
:103560000E94B40ADACD0F900F900F900F900F9039
:10357000DF91CF911F910F91FF90EF90DF90CF904F
:10358000BF90AF9008950F931F93CF93DF93EC01FB
:10359000688179818A810E940D218C010E946720B7
:1035A0000E94A31EB801CE01DF91CF911F910F9110
:1035B0000C942418CF93DF93EC018B819C81892B91
:1035C00029F08981988189238F3F19F4DF91CF9168
:1035D0000895CE010E94530A8823C1F3CE010E94B0
:1035E000C31ACE01DF91CF910C940E0A882321F0EB
:1035F0000E9473210C94AE210895882321F00E942B
:1036000079210C94AE2108950E9481210E9492217B
:103610000E94AE210E9468270E94BC2590E080E0B5
:103620000E94CC1590E080E00C94E2150E944521A8
:103630000C94041B0E9470210C94161B282F892FB8
:1036400082958F70903C80F48A30B0F4843020F4FE
:10365000823090F480E008958630E1F781E0283EE2
:1036600088F0213FB9F70EC08C3011F08F3091F700
:1036700093FB882780F9089581E0203F39F018F402
:10368000283E40F70895243F29F7FCCF08950E9473
:1036900001210C941E1BCF93DF9300D000D00F921A
:1036A000CDB7DEB70F900F900F900F900F90DF9176
:1036B000CF910895CF93DF9300D000D000D0CDB745
:1036C000DEB726960FB6F894DEBF0FBECDBFDF91F2
:1036D000CF9108951F93CF93DF93E0912A0216E0D4
:1036E00080912B028E1304C0DF91CF911F9108951A
:1036F000CE2FD0E01E9FF0011124E45DFD4F4081EC
:10370000518162817381848195810E945A1BFE01DF
:103710003196E770E5CF40915C0250915D02609177
:103720005E0270915F0280916002909161020C9440
:103730005A1B1F93CF93DF9380916102807FA9F47E
:1037400080915E02882389F080912A02C0912B0229
:1037500070915C0260915D02A0915F02B091600285
:10376000D62FD72316E0C81304C0DF91CF911F9145
:10377000089590E0109711F0DF3F19F401968770DB
:10378000F2CF189F9001199F300D1124F901E45DCB
:10379000FD4F41816413F2CF40814713EFCF428147
:1037A0004111ECCF438154814A1B5B0B483C5105CE
:1037B00028F7809161028F70806180936102F90126
:1037C000EF5CFD4F80818F70806180838CE592E09B
:1037D0000E94DA1ADF91CF911F910C946A1BAF926D
:1037E000BF92CF92DF92EF92FF920F931F93CF93EE
:1037F000DF93CDB7DEB72B970FB6F894DEBF0FBEC1
:10380000CDBF8C0185E0F801DE01179601900D9285
:103810008A95E1F7F80140815181E2808CE5A82E7C
:1038200082E0B82E60915F027091600261157105AF
:1038300049F090915C0220915D02892F82238F3F95
:1038400009F045C1EE2009F453C14F8358878F8199
:1038500098850E94471BF82E882309F449C186E009
:10386000F801ACE5B2E001900D928A95E1F78CE5A4
:1038700092E00E9412170E94991B26C1809161025A
:10388000382F307F683C710508F07CC03111B5C01D
:10389000FE2C251324C0941322C0E11020C08F7089
:1038A0008061809361020E948B1B8CE592E00E94F4
:1038B000DA1A80916102F80185838F2D2B960FB65D
:1038C000F894DEBF0FBECDBFDF91CF911F910F9156
:1038D000FF90EF90DF90CF90BF90AF900895CD28EC
:1038E00029F0842F85238F3F09F084C080E0F82FD2
:1038F000F170DF2EE0912A0220912B0236E080FD4C
:103900001CC0EE20D1F2809161028160809361023F
:10391000F12CD3CF8E2F90E03E9FF0011124E45D77
:10392000FD4F6181651306C06081641303C062812D
:103930006E11E7CFFC013196E770E213EBCF4F83B6
:1039400058878F8198850E940121292F22952F70F9
:10395000903260F0225F2F70223078F49F7051F027
:10396000F8019581907F31F4D12C0AC09F7011F03D
:103970008823D1F3805E8830B8F3C8010E94DA1A38
:10398000FD2C9BCF31116EC06E2D7A858B850E94E8
:103990004B1B8CE592E00E94DA1A86E0F501119249
:1039A0008A95E9F70E948B1BB3CF86E0F801ACE55E
:1039B000B2E001900D928A95E1F77FCF4F8358874F
:1039C0008F8198850E94471B81113DC080916102C3
:1039D000816080936102C8010E94DA1A6ECF6E2D59
:1039E0007A858B850E944B1B86E0F50111928A95A2
:1039F000E9F76AC081E08E257ACF251306C09413BB
:103A000004C0F801EE2009F453C04F8358878F811A
:103A100098850E94471B882309F46AC0EE2009F4A8
:103A200067C080916102803270F020915C02309119
:103A30005D023A8329831B82DD82CC828E83CE0194
:103A400001960E94DA1A86E0F801ACE5B2E0019036
:103A50000D928A95E1F70E94991B0E948B1BFF240F
:103A6000F3942BCF2513D1CF9413CFCFE110CDCF2B
:103A7000F8018583C8010E94DA1A86E0F5011192E7
:103A80008A95E9F71ACF251399CF941397CF809190
:103A9000610280FD8ACF982F907F09F486CFF801CC
:103AA0008583903F31F0982F907F905F8F70892BA6
:103AB0008583C8010E94DA1A86E0F801ACE5B2E01D
:103AC00001900D928A95E1F70E948B1BF6CEC38080
:103AD000D480F0905E02F601E61BF70BBF01F110F7
:103AE000CDCE683C710508F07ACFFE2CE110CBCF2B
:103AF000C8010E94DA1AB3CF1F93CF93DF93CDB7DB
:103B0000DEB72C970FB6F894DEBF0FBECDBF4F8344
:103B1000588769877A878B879C87CE0107960E9492
:103B2000EF1B882369F08A859B85892B39F058859E
:103B30004F81852F84238F3F09F071C016E05FC04D
:103B400086E0FE013796DE01119601900D928A956E
:103B5000E1F78A859B85892B89F38F819885892355
:103B60008F3F61F320912B0230E0C90101968770ED
:103B7000992740912A024817190671F40E941A1BCE
:103B800010922B0210922A0286E0ECE5F2E0DF01AF
:103B90001D928A95E9F7D2CF96E0929FD001939F2C
:103BA000B00D1124A45DBD4FFE01319601900D9220
:103BB0009A95E1F780932B020E946A1BBFCF819FE9
:103BC000C0011124845D9D4F0E94EF1B8823E9F002
:103BD000E0912A021E9FF0011124E45DFD4F408117
:103BE000518162817381848195810E945A1B8091E9
:103BF0002A0290E001968770992780932A0280918B
:103C00002A0290912B028913DACF2C960FB6F894E2
:103C1000DEBF0FBECDBFDF91CF911F9108956985A3
:103C20007A858B859C850E945A1B88CFEF92FF92E4
:103C30000F931F93CF93DF938C01892B89F0F12C85
:103C4000EE24E394E8012196F8018491843709F485
:103C500058C0A0F4823009F43FC048F48130D1F05C
:103C6000DF91CF911F910F91FF90EF9008959CEFFE
:103C7000980F9037A8F70E9417170AC0853709F4E4
:103C80004EC09CE7980F903758F78F770E94AD177A
:103C90008E0116C00E5F1F4FFE01849190E2980FB7
:103CA000983060F48770FE2D01C0FF0F8A95EAF707
:103CB0008F2F0E9484210E94AE2102C00E941717FC
:103CC0008F2D882309F4BECFEFE9FFE03197F1F79C
:103CD00000C000008150F5CF0E5F1F4FFE018491A0
:103CE00090E2980F983050F48770FE2D01C0FF0FBE
:103CF0008A95EAF78F2F0E948A21DDCF0E94AD17A7
:103D0000DFCF0E5F1F4FFE01C491CC23C9F28FE9B4
:103D10009FE00197F1F700C00000C150F6CF0E5FA1
:103D20001F4FFE01F490CCCF08950C94941E0E9476
:103D3000951E6093930270939402809395029093E2
:103D400096020C94041B08950C94971ECF93DF9356
:103D500000D000D0CDB7DEB769837A838B839C8394
:103D60008091930290919402A0919502B091960255
:103D700029813A814B815C81282B392B4A2B5B2B83
:103D800029833A834B835C83CA01B9010F900F905A
:103D90000F900F90DF91CF910C94971ECF93DF93EC
:103DA00000D000D0CDB7DEB769837A838B839C8344
:103DB0008091930290919402A0919502B091960205
:103DC00029813A814B815C81282339234A235B2353
:103DD00029833A834B835C83CA01B9010F900F900A
:103DE0000F900F90DF91CF910C94971ECF93DF939C
:103DF00000D000D0CDB7DEB769837A838B839C83F4
:103E00008091930290919402A0919502B0919602B4
:103E100029813A814B815C81282739274A275B27F2
:103E200029833A834B835C83CA01B9010F900F90B9
:103E30000F900F90DF91CF910C94971E0C94941ECD
:103E40000C941E1F0E94201F60938F02709390029B
:103E500080939102909392020C94041B60E070E0B6
:103E6000CB010C94221F0F931F93CF93DF9300D0AD
:103E700000D0CDB7DEB741E050E060E070E08A01ED
:103E80009B0104C0000F111F221F331F8A95D2F718
:103E900009831A832B833C83C901B8010F900F90CB
:103EA0000F900F90DF91CF911F910F910C94221FD3
:103EB0000F931F93CF93DF9300D000D0CDB7DEB721
:103EC00041E050E060E070E004C0440F551F661F01
:103ED000771F8A95D2F780918F0290919002A091DE
:103EE0009102B09192028A019B01082B192B2A2B77
:103EF0003B2B09831A832B833C83C901B8010F90A4
:103F00000F900F900F90DF91CF911F910F910C9414
:103F1000221F0F931F93CF93DF9300D000D0CDB714
:103F2000DEB741E050E060E070E004C0440F551F90
:103F3000661F771F8A95D2F74095509560957095CA
:103F400080918F0290919002A0919102B091920283
:103F50008A019B01082319232A233B2309831A83FF
:103F60002B833C83C901B8010F900F900F900F90E5
:103F7000DF91CF911F910F910C94221F0F931F93EC
:103F8000CF93DF9300D000D0CDB7DEB741E050E053
:103F900060E070E004C0440F551F661F771F8A95CC
:103FA000D2F780918F0290919002A0919102B091EE
:103FB00092028A019B01082719272A273B27098398
:103FC0001A832B833C83C901B8010F900F900F9087
:103FD0000F90DF91CF911F910F910C94221FCF93DF
:103FE000DF9300D000D0CDB7DEB769837A838B83AF
:103FF0009C8380918F0290919002A0919102B09148
:10400000920229813A814B815C81282B392B4A2BE2
:104010005B2B29833A834B835C83CA01B9010F90E0
:104020000F900F900F90DF91CF910C94221FCF93A0
:10403000DF9300D000D0CDB7DEB769837A838B835E
:104040009C8380918F0290919002A0919102B091F7
:10405000920229813A814B815C81282339234A23AA
:104060005B2329833A834B835C83CA01B9010F9098
:104070000F900F900F90DF91CF910C94221FCF9350
:10408000DF9300D000D0CDB7DEB769837A838B830E
:104090009C8380918F0290919002A0919102B091A7
:1040A000920229813A814B815C81282739274A274E
:1040B0005B2729833A834B835C83CA01B9010F9044
:1040C0000F900F900F90DF91CF910C94221F0895C5
:1040D000E82F2DE0929FE00D11248E2F877041E094
:1040E00001C0440F8A95EAF7E695E695E69585E0E6
:1040F000E89FF0011124EE59FD4F30E020E070E020
:104100005191DF011197CB01022E02C09695879540
:104110000A94E2F7817081958527842385278C9303
:104120002F5F3F4F2530310559F70895E82F2DE0D7
:10413000929FE00D11249E2F9770E695E695E695E7
:1041400085E0E89FF0011124EE59FD4F50E040E07A
:1041500080E0219130E0092E02C0369527950A941F
:10416000E2F721703327042E01C0220F0A94EAF7E8
:10417000822B4F5F5F4F4530510559F70895BF922D
:10418000CF92DF92EF92FF920F931F93CF93DF9323
:104190008C01C0908F02D0909002E0909102F0903C
:1041A00092028091930290919402A0919502B09115
:1041B0009602C82AD92AEA2AFB2ACFE1D0E0BC2EEF
:1041C000D701C6010C2E04C0B695A7959795879583
:1041D0000A94D2F780FD0EC0219788F7B12C8B2D61
:1041E000DF91CF911F910F91FF90EF90DF90CF90D3
:1041F000BF900895B8018C2F0E94D10A019761F3F6
:10420000EECFCF93DF93D82FC92F0E94BF206D2F01
:104210007C2FDF91CF910C94D10A1F93CF93DF9322
:10422000162FD72F90912702992339F0862F972F99
:10423000DF91CF911F910C940121882391F0862F5B
:10424000972F0E94BF20C82F682F812F9D2F0E947B
:104250006820612F7D2F8C2FDF91CF911F910C94BF
:10426000D10A862F972F0E949620C82FF2CF682F51
:1042700080910501909106010C942723682F80916D
:104280000501909106010C942923809105019091DC
:1042900006010C942B238091970285958595859531
:1042A0000895809197028770089590919702977072
:1042B00081E009F480E008958091A302089590912F
:1042C000A302982B9093A3020895982F9095809124
:1042D000A30289238093A30208958093A3020895E3
:1042E0001092A30208959091A202982B9093A2029B
:1042F0000895982F90958091A20289238093A2021D
:1043000008951092A20208959091A102982B909383
:10431000A1020895982F90958091A10289238093FE
:10432000A10208951092A102089580919802089523
:1043300008950C94982190919802981721F08093F9
:1043400098020C949921089580919802882329F06D
:104350001092980280E00C9499210895E091050153
:10436000F09106018091A3028083E0910501F09114
:10437000060180819091A202892B8083E091050142
:10438000F091060180819091A102892B8083909108
:104390009802992381F0E0910501F0910601808156
:1043A000892B808380910501909106010E94DB2278
:1043B00081110E94A42180910501909106010C9425
:1043C000731508950C94E12198E0899F90011124C0
:1043D000622B609397020E94581F809197028595E7
:1043E000859585950C94E2211092970280E00C94BB
:1043F000E221909197028095892380939702282F3C
:10440000277071F4282F082E000C330B9217130617
:1044100039F08595859585950E94891F0C94F42126
:1044200008959093A5018093A4010895829594E046
:10443000899F900111242C7C869586958373282B67
:1044400030E0C901880F991F8A7A3595279525751F
:10445000822B0895CF93DF93D92F0E941622C82F65
:104460008D2F0E9416229C2FDF91CF91089590E00E
:1044700080E00E9456349C0181E02C3E3E4F09F0C2
:1044800080E0089582E090E00C94483483E090E06E
:104490000C944834CF9384E090E00E944834C82FB5
:1044A00081E290E00E944834982F8C2FCF9108959C
:1044B000CF93682FC92F84E090E00E945C346C2F6A
:1044C00081E290E0CF910C945C34AB01BC018FE0B1
:1044D00090E00C946E34AB01BC0183E190E00C944D
:1044E0006E3460E070E0CB010C946B2260E070E011
:1044F000CB010E9465220C9471226CEE7EEF90E05D
:1045000080E00E947A3460E082E090E00E945C34B7
:1045100060E083E090E00E945C341092930210927D
:104520009402109295021092960260E084E090E06E
:104530000E945C3460E081E290E00E945C3460E0C4
:1045400085E090E00E945C3460E086E090E00E94AC
:104550005C346FEF87E090E00E945C3440E050E014
:10456000BA0188E090E00E946E3460E08DE090E057
:104570000E945C3440E050E0BA0188E190E00E9483
:104580006E3460E087E190E00E945C3440E050E0EF
:10459000BA018CE190E00E946E3460E080E290E02D
:1045A0000E945C340C9476220C947D22682F8EE05D
:1045B00090E00C945C34AC019C012E5F3F4F485F4F
:1045C0005F4F80E02417350709F40895F9019191B0
:1045D0009F019923B9F38F5FF5CF9C01662351F0BA
:1045E000FC013296285F3F4F8191861729F0E21730
:1045F000F307D1F780E0089581E008959C01FC0164
:1046000032968FEF90E04191461751F08F3F19F4A9
:10461000411101C0892F9F5F9630A9F78F3F09F4A0
:104620000895280F311D87FD3A95F9016283089599
:104630009C01FC013296285F3F4F8191861303C095
:10464000DF0111971C92E217F307B9F708950C9454
:10465000FE220C941823FC01329686E0DF011D92A5
:104660008A95E9F70895089508950C9434230E94DB
:1046700035238091CD02843049F11092A50288E162
:1046800090E020E40FB6F894A895809360000FBEE8
:104690002093600080E00E943B0A0E94352383B78C
:1046A000817F846083BF83B7816083BF789488955E
:1046B00083B78E7F83BF0FB6F894A8958091600072
:1046C000886180936000109260000FBE0895089585
:1046D000CF930E9433230E946F0D0E946723C0E096
:1046E0008C2F0E94C40C892B31F4CF5FC530C1F7E9
:1046F00080E0CF91089581E0FCCF08950C947D2354
:104700000E941A1B0E9467150E943B0A0C947E238C
:104710001F921FB61F9211248F939F93AF93BF9345
:104720008091A502811113C08091A6029091A702E9
:10473000A091A802B091A9024196A11DB11D80933C
:10474000A6029093A702A093A802B093A902BF91DA
:10475000AF919F918F911F901FBE1F90189582E07F
:1047600084BD93E095BD9AEF97BD80936E00089548
:104770002FB7F8948091A6029091A702A091A80269
:10478000B091A9022FBF0895CF93DF9300D000D03E
:10479000CDB7DEB78FB7F8942091A6023091A7026B
:1047A0004091A8025091A90229833A834B835C83EC
:1047B0008FBF69817A818B819C810F900F900F90C0
:1047C0000F90DF91CF9108959C014FB7F89480919D
:1047D000A6029091A702A091A802B091A9024FBF92
:1047E000821B930B089578941F921FB61F92112479
:1047F0008F939F93AF93BF938091A6029091A7024E
:10480000A091A802B091A9020196A11DB11D8093AB
:10481000A6029093A702A093A802B093A902BF9109
:10482000AF919F918F911F901FBE1F90189587E7A2
:1048300097E7909301088093000888E19AE00FB60B
:10484000F894A895809360000FBE90936000FFCF0E
:10485000CF93DF9300D000D0CDB7DEB70E943722D0
:10486000811102C00E94D4220E9442228093A4029D
:104870000E944A229093AB028093AA020E94462291
:10488000282F30E050E040E029833A834B835C835B
:10489000CA01B9010F900F900F900F90DF91CF9147
:1048A0000C94A41E8091B30280FF12C060910C0191
:1048B00085E0689FB001112475956795759567959A
:1048C00060387105A8F561157105A1F1862F08956D
:1048D00081FF09C060910C0185E0689FB00111243F
:1048E00075956795EDCF60910C0182FD0AC08091AE
:1048F000B2028823D1F090910B0160910C018917CD
:1049000028F085E0689FB0011124DACF869FB001BE
:10491000112485E0869F9001879F300D1124692F17
:1049200070E0C9010E942E34CBCF65E070E0CECF9D
:104930008FE7089581E008958091B30280FF0CC055
:104940006091080170E0759567957595679561159B
:10495000710549F1862F089581FF06C06091080115
:1049600070E075956795F3CF6091080182FD0BC0EB
:104970009091B2029923A1F0609107018091080102
:10498000961738F0682F70E06038710500F38FE7F4
:104990000895899FC001112470E00E942E34F4CF45
:1049A00061E070E0D7CF81E00895803F31F40E944C
:1049B000522481958093B7020895813F19F40E9493
:1049C0005224F8CF823F31F40E9452248195809383
:1049D000B6020895833F19F40E945224F8CF893F0C
:1049E00029F40E949C248093B80208958A3F21F400
:1049F0000E949C248195F7CF8B3F31F40E949C2428
:104A000081958093B90208958C3F19F40E949C24EB
:104A1000F8CF843F31F48091B50281608093B50274
:104A20000895853F21F48091B5028260F7CF863FDB
:104A300021F48091B5028460F1CF873F21F4809109
:104A4000B5028860EBCF883F21F48091B502806188
:104A5000E5CF8D3F31F48091B30281608093B30242
:104A600008958E3F21F48091B3028260F7CF8F3F8B
:104A7000B9F78091B3028460F1CF9091B602803F84
:104A800041F48091B70287FD1092B702992371F02B
:104A90000895813F29F48091B7021816ACF3F6CF40
:104AA000823F81F497FFF2CF1092B6028091B70255
:104AB0009091B802892B9091B902892B49F71092F5
:104AC000B2020895833F19F4191674F3DFCF893FBA
:104AD00039F48091B8021816CCF61092B802D6CFED
:104AE0008A3F29F48091B80287FFD0CFF6CF8B3F61
:104AF00039F48091B90287FFC9CF1092B902C6CFAD
:104B00008C3F29F48091B9021816BCF3BFCF843FC3
:104B100031F48091B5028E7F8093B502B7CF853F87
:104B200021F48091B5028D7FF7CF863F21F48091EB
:104B3000B5028B7FF1CF873F21F48091B502877F4B
:104B4000EBCF883F21F48091B5028F7EE5CF8D3F7A
:104B500031F48091B3028E7F8093B30297CF8E3F62
:104B600021F48091B3028D7FF7CF8F3F09F08ECF74
:104B70008091B3028B7FF0CF8091A40283FF7EC02F
:104B80008BE996E00E94BA088091B5021F928F933C
:104B900086E996E09F938F930E94530984E996E0FB
:104BA0000E94BA088091B602282F082E000C330B01
:104BB0003F938F9381E996E09F938F930E945309CF
:104BC0008FE896E00E94BA088091B702282F082E3D
:104BD000000C330B3F938F938CE896E09F938F9359
:104BE0000E9453098AE896E00E94BA088091B802B0
:104BF000282F082E000C330B3F938F9387E896E005
:104C00009F938F930E94530985E896E00E94BA080B
:104C10008091B902282F082E000C330B3F938F93FD
:104C200082E896E09F938F930E9453098FE796E066
:104C30000E94BA088091B2021F928F938CE796E08F
:104C40009F938F930E9453098AE796E00E94BA08C7
:104C50008091B3021F928F9387E796E09F938F9383
:104C60000E94530984E796E00E94BA088DB79EB768
:104C70004C960FB6F8949EBF0FBE8DBF84EB92E0AA
:104C80000E94BD150E94B8239093B1028093B00298
:104C900008950F931F93CF93DF9300D000D000D0DF
:104CA000CDB7DEB786E0E4EBF2E09E012F5F3F4F29
:104CB000D90101900D928A95E1F78091B602909109
:104CC000B702892B890181F08091AE029091AF02E9
:104CD0000E94E4239C018091B202882341F19091CB
:104CE0000D019217130680F18091B8029091B902DC
:104CF000892B91F08091AC029091AD020E94E42347
:104D00009C018091B202882309F479C09091090135
:104D10009217130608F481C026960FB6F894DEBFEA
:104D20000FBECDBFDF91CF911F910F91089540919C
:104D30000E019AE0499FA001112442175307A0F6E3
:104D40008F5F8093B20202C08F3FD1F71092B802FA
:104D50001092B9028091B602181624F40E945224CF
:104D60008093B6028091B60287FF05C00E9452244C
:104D700081958093B6028091B702181624F40E94A0
:104D800052248093B7028091B70287FF05C00E942A
:104D9000522481958093B7023091B6023323A1F05B
:104DA0002091B702222381F045EB3403C001112486
:104DB0009923E9F09093B60245EB24039001112466
:104DC0003323C9F03093B7020E94BC258091B00212
:104DD0009091B1029093AF028093AE0286E0F80109
:104DE000A4EBB2E001900D928A95E1F77DCF81E0CE
:104DF0008093B602E1CF81E08093B702E5CF409186
:104E00000A019AE0499FA00111244217530708F0B4
:104E100083CF8F5F8093B20202C08F3FD1F7109291
:104E2000B6021092B7028091B802181624F40E94BC
:104E30009C248093B8028091B80287FF05C00E942D
:104E40009C2481958093B8028091B902181624F4AD
:104E50000E949C248093B9028091B90287FF05C00B
:104E60000E949C2481958093B9023091B80233232B
:104E7000A1F02091B902222381F045EB3403C00157
:104E800011249923E9F09093B80245EB2403900193
:104E900011243323C9F03093B9020E94BC258091BC
:104EA000B0029091B1029093AD028093AC0286E083
:104EB000F801A4EBB2E001900D928A95E1F72CCFB6
:104EC00081E08093B802E1CF81E08093B902E5CF21
:104ED00086E0E4EBF2E0DF011D928A95E9F710929B
:104EE000B2021092B30208958EEB98E00E94BA08C5
:104EF0001F9281E08F931F9285E08F9380E798E067
:104F00009F938F930E9453090F900F900F900F90D3
:104F10000F900F900895843009F45DC040F4823002
:104F200061F1833009F440C0813041F0089585304B
:104F300009F468C0863009F47CC0089580910E01A0
:104F4000482F460F5527551F4F3F510594F4680FC2
:104F500060930E0180910E011F928F9389EA97E072
:104F60009F938F930E9453090F900F900F900F9073
:104F700008958FEF80930E01EDCF80910D01482FA2
:104F8000460F5527551F4F3F510554F4680F609346
:104F90000D0180910D011F928F9387E997E0E0CF7B
:104FA0008FEF80930D01F5CF80910C01482F460FB4
:104FB0005527551F4F3F510554F4680F60930C015E
:104FC00080910C011F928F9384E897E0C9CF8FEFF7
:104FD00080930C01F5CF80910B01482F460F552788
:104FE000551F4F3F510554F4680F60930B0180919A
:104FF0000B011F928F938FE697E0B2CF8FEF8093D4
:105000000B01F5CF80910801482F460F5527551FFA
:105010004F3F510554F4680F6093080180910801D7
:105020001F928F9386E597E09BCF8FEF80930801C7
:10503000F5CF80910701482F460F5527551F4F3F49
:10504000510554F4680F60930701809107011F9286
:105050008F938BE397E084CF8FEF80930701F5CF99
:10506000843009F44AC038F4823029F18330A1F148
:10507000813041F00895853009F450C0863009F43C
:105080005EC0089580910E01681790F4861B80938E
:105090000E0180910E011F928F938CE297E09F93F7
:1050A0008F930E9453090F900F900F900F900895C7
:1050B00010920E01EECF80910D01681750F4861BFF
:1050C00080930D0180910D011F928F938AE197E0EB
:1050D000E6CF10920D01F6CF80910C01681750F4C5
:1050E000861B80930C0180910C011F928F9387E0A7
:1050F00097E0D5CF10920C01F6CF80910B01681785
:1051000050F4861B80930B0180910B011F928F93AB
:1051100082EF96E0C4CF10920B01F6CF8091080188
:10512000681750F4861B80930801809108011F9234
:105130008F9389ED96E0B3CF10920801F6CF80915E
:105140000701681750F4861B8093070180910701BF
:105150001F928F938EEB96E0A2CF10920701F6CFAD
:10516000CF93DF9300D000D0CDB7DEB789831F92F5
:105170008F9383EC99E09F938F930E94530981E072
:1051800090E0A0E0B0E09C01AD01098004C0220FD6
:10519000331F441F551F0A94D2F729833A834B8348
:1051A0005C83CA01B9010E94A41E0F900F900F905A
:1051B0000F900F900F900F900F90DF91CF910C9464
:1051C0001A1BCF93DF938B3258F4853098F0EBEFB6
:1051D000E80FE63278F4F0E0EE52FB4C0C944234E7
:1051E000833470F48A3308F029C2853359F0883348
:1051F00009F46BC188E79EE00E94BA0880E07AC19A
:105200008334C1F780E00E94B02856C187E19FE057
:105210000E94BA0888E69EE00E94BA080E944622D0
:105220001F928F9385E69EE09F938F930E94530970
:1052300083E69EE00E94BA080E944222C82F80E5C1
:105240009EE00E94BA081F92CF938BE49EE09F934A
:105250008F930E94530989E49EE00E94BA088FE36D
:105260009EE00E94BA088C2F81701F928F938CE36E
:105270009EE09F938F930E9453098AE39EE00E94D1
:10528000BA0880E39EE00E94BA08C1FB882780F933
:105290001F928F938DE29EE09F938F930E945309FC
:1052A0008BE29EE00E94BA088FE19EE00E94BA085D
:1052B000C2FB882780F91F928F938CE19EE09F9319
:1052C0008F930E9453098AE19EE00E94BA0881E10F
:1052D0009EE00E94BA08C3FBCC27C0F91F92CF936F
:1052E0008EE09EE09F938F930E9453098CE09EE096
:1052F0000E94BA080E944A22EC0188EF9DE00E94B9
:10530000BA08DF93CF9383EF9DE09F938F930E9422
:10531000530981EF9DE00E94BA0888ED9DE00E944C
:10532000BA088C2F81701F928F9385ED9DE09F931B
:105330008F930E9453098DB79EB780960FB6F8944D
:105340009EBF0FBE8DBF83ED9DE00E94BA088CEB1F
:105350009DE00E94BA08C1FB882780F91F928F93B5
:1053600089EB9DE09F938F930E94530987EB9DE00B
:105370000E94BA0885EA9DE00E94BA088D2F8170CC
:105380001F928F9382EA9DE09F938F930E9453090F
:1053900080EA9DE00E94BA088EE89DE00E94BA086B
:1053A000D695D1701F92DF938BE89DE09F938F93EA
:1053B0000E94530989E89DE00E94BA0887E79DE0B2
:1053C0000E94BA08C2FB882780F91F928F9384E756
:1053D0009DE09F938F930E94530982E79DE00E9476
:1053E000BA0880E69DE00E94BA08C3FB882780F9CE
:1053F0001F928F938DE59DE09F938F930E94530999
:105400008BE59DE00E94BA0881E59DE00E94BA0804
:10541000C4FB882780F91F928F938EE49DE09F93B1
:105420008F930E9453098CE49DE00E94BA088AE39E
:105430009DE00E94BA08C5FB882780F91F928F93D0
:1054400087E39DE09F938F930E94530985E39DE03E
:105450000E94BA0889E19DE00E94BA08C6FB88272D
:1054600080F91F928F9386E19DE09F938F930E9416
:1054700053098DB79EB780960FB6F8949EBF0FBEA6
:105480008DBF84E19DE00E94BA088CE09DE00E94FF
:10549000BA08C7FBCC27C0F91F92CF9389E09DE0E3
:1054A0009F938F930E94530987E09DE00E94BA0862
:1054B0000F900F900F900F9081E01CC086E09FE04E
:1054C0000E94BA080E94D422F7CF84E69BE00E9493
:1054D000BA08F2CF8091A402807F8093A4028DE36A
:1054E0009BE00E94BA0882E09FE00E94BA0881E037
:1054F0008093BB02DF91CF91089586EE9EE00E94DB
:10550000BA080E94440AD8CF9091A402892F8E7FB6
:1055100090FF81608093A40280FF03C08AED9EE02B
:10552000D6CF8DEC9EE00E94BA088091A402817FC4
:105530008093A402C1CF9091A402892F8D7F91FF07
:1055400082608093A40281FF08C080EC9EE00E94EC
:10555000BA088091A4028160EBCF82EB9EE0B7CFC6
:105560009091A402892F8B7F92FF84608093A40284
:1055700082FF03C083EA9EE0EACF83E99EE0A7CFE3
:105580009091A402892F877F93FF88608093A40263
:1055900083FF03C087E89EE0DACF8AE79EE097CFDB
:1055A0008EE29BE00E94BA0881E09BE00E94BA086C
:1055B0008AEC9AE00E94BA0883E99AE00E94BA084D
:1055C0008DE59AE00E94BA0881E39AE080CF83E2F9
:1055D0009AE00E94BA080E9467151F928F9389E093
:1055E0009AE09F938F930E945309809119011F9213
:1055F0008F9382EF99E09F938F930E94530980913C
:10560000C8021F928F938FED99E09F938F930E9412
:1056100053090E94C4239F938F937F936F9388ECC9
:1056200099E09F938F930E9453098DB79EB742963E
:105630000FB6F8949EBF0FBE8DBF3ECF8953E3CD0A
:105640008D51E1CD80E008950C94222B8E518A304B
:1056500030F4E82FF0E0E657FE4F8081089580E0B7
:105660000895CF93C82F8091BB028130A9F082307A
:1056700009F446C0811136C10E945C21823209F0D2
:1056800033C18C2F0E94222B81111BC08C2F0E94B2
:10569000E1288170CF9108950E945C21823289F3C4
:1056A0008C2F0E94242B81111BC0C431D9F060F4CF
:1056B000CB3071F0C031D1F089EB99E00E94BA088B
:1056C00013C081E090E0E5CFC93261F0C833A1F7A3
:1056D0008DE39BE00E94BA088FEB99E00E94BA0824
:1056E00081E0D7CF1092BB0280E0D3CF0E94742715
:1056F0008BEB99E00E94BA0882E08093BB02F0CF66
:10570000C93209F445C060F5C33109F450C050F402
:10571000C73009F4CDC0CB30C1F18DE598E00E94CF
:10572000BA081CC0C431A1F182EE8C0F8630A8F7F4
:105730008C2F0E94262B8093BA028091BA02882374
:1057400009F4CDC01F928F9387E598E09F938F93C4
:105750000E9453090F900F900F900F9081E09ACF05
:10576000CE3409F4A3C050F4C83379F06AE0CB34E6
:10577000A1F68091BA020E948B27DFCFC13509F4D0
:105780008FC061E0C235A9F3C8CF0E947427D5CF7E
:105790008091BA02882319F01092BA02CECF8CE61B
:1057A00098E00E94BA0881E08093BB0273CF86E440
:1057B00098E00E94BA0884E398E00E94BA088091B9
:1057C0000E011F928F9381E398E09F938F930E9425
:1057D00053098FE298E00E94BA088DE198E00E9498
:1057E000BA0880910D011F928F938AE198E09F93F0
:1057F0008F930E94530988E198E00E94BA0889E0DB
:1058000098E00E94BA0880910C011F928F9386E065
:1058100098E09F938F930E94530984E098E00E9440
:10582000BA0883EF97E00E94BA0880910B011F929B
:105830008F9380EF97E09F938F930E9453098EEE92
:1058400097E00E94BA0889ED97E00E94BA0880911B
:1058500008011F928F9386ED97E09F938F930E948C
:10586000530984ED97E00E94BA088DEB97E00E94FF
:10587000BA08809107011F928F938AEB97E09F935C
:105880008F930E94530988EB97E00E94BA088DB766
:105890009EB748960FB6F8949EBF0FBE8DBF4DCFF2
:1058A00061E08091BA020E94302847CF6AE0F9CFC8
:1058B0008EE180930E0182E380930D018AE0809354
:1058C0000C0184E180930B0188E08093080188E259
:1058D000809307018FE598E00E94BA082ECF84E5F7
:1058E00098E01DCF1092BB0280E0D4CE8091C70219
:1058F0000895CF93DF9300D00F92CDB7DEB790918C
:10590000CD02943019F589836A837B8382E080938A
:10591000E9008FEF9091E800815095FD06C095ED6C
:105920009A95F1F700008111F5CF8091E80085FF8D
:105930000DC050E040E063E070E0CE0101960E94AF
:10594000882F8091E8008E778093E8000F900F9069
:105950000F90DF91CF910895CF93DF93D82FC92F68
:105960000E946B2F823011F0843039F46D2F7C2F20
:1059700084E0DF91CF910C94792CDF91CF91089541
:10598000BC0183E00C94792CCF93DF93D82FC92FDF
:105990000E946B2F823011F0843001F582E08093F9
:1059A000E9008FEF9091E800815095FD06C095EDDC
:1059B0009A95F1F700008111F5CF8091E80085FFFD
:1059C0000DC050E040E066E070E08D2F9C2F0E94FB
:1059D000882F8091E8008E778093E800DF91CF9147
:1059E0000895CF93DF93D82FC92F0E946B2F823059
:1059F00011F0843049F581E08093E9008FEF9091B8
:105A0000E800815095FD06C095ED9A95F1F70000EC
:105A10008111F5CF8091E80085FF16C050E040E08D
:105A200068E070E08D2F9C2F0E94882F8091E80005
:105A30008E778093E80088E0ED2FFC2FAFEBB2E08B
:105A400001900D928A95E1F7DF91CF9108959FB76C
:105A5000F8941092BE029FBF9091CD02943009F04D
:105A600048C02091E9002F703091EC00932F917085
:105A700030FD90E8922B23E02093E9002091EB0089
:105A800020FF34C02091EE0027FF30C02091BC02DF
:105A9000222321F02091E80025FF28C01092BC02AB
:105AA00026E03091E80035FF14C08093F10080912A
:105AB000E80085FD27C08091E80080FFFCCF809141
:105AC000E8008E778093E8009F709093E90080E073
:105AD00008953091CD02343049F43091EB0035FD1A
